:100000000C9435000C945D000C945D000C945D0024
:100010000C945D000C945D000C945D000C945D00EC
:100020000C945D000C945D000C945D000C945D00DC
:100030000C945D000C945D000C945D000C945D00CC
:100040000C94CF030C945D000C949D030C947703E7
:100050000C945D000C945D000C945D000C945D00AC
:100060000C945D000C945D00D70411241FBECFEFEB
:10007000D8E0DEBFCDBF21E0A6E3B1E001C01D9214
:10008000A23EB207E1F711E0A0E0B1E0EAE5F3E15A
:1000900002C005900D92A633B107D9F710E0C5E371
:1000A000D0E004C02197FE010E949907C433D10714
:1000B000C9F70E9419040C94AB090C940000E0915C
:1000C0004101F09142010190F081E02D682F81E41F
:1000D00091E00994CF92DF92EF92FF920F931F93DA
:1000E000CF93DF936C017A018B01C0E0D0E0CE1595
:1000F000DF0589F0D8016D918D01D601ED91FC915C
:100100000190F081E02DC6010995892B11F47E0143
:1001100002C02196ECCFC701DF91CF911F910F91C3
:10012000FF90EF90DF90CF900895FC01918D828D2C
:10013000981761F0828DDF01A80FB11D5D968C913B
:10014000928D9F5F9F73928F90E008958FEF9FEF46
:100150000895FC01918D828D981731F0828DE80F02
:10016000F11D858D90E008958FEF9FEF0895FC01BC
:10017000918D228D892F90E0805C9F4F821B910989
:100180008F739927089581E491E00E94B70021E0E0
:10019000892B09F420E0822F0895FC01848DDF0172
:1001A000A80FB11DA35ABF4F2C91848D90E00196EA
:1001B0008F739927848FA689B7892C93A089B189D9
:1001C0008C9180648C93938D848D981306C00288E3
:1001D000F389E02D80818F7D80830895EF92FF92D7
:1001E0000F931F93CF93DF93EC0181E0888F9B8D5A
:1001F0008C8D981305C0E889F989808185FD24C01C
:10020000F62E0B8D10E00F5F1F4F0F731127E02E9E
:100210008C8DE8120CC00FB607FCFACFE889F9897B
:10022000808185FFF5CFCE010E94CD00F1CF8B8D6F
:10023000FE01E80FF11DE35AFF4FF0820B8FEA89B0
:10024000FB898081806207C0EE89FF896083E8892D
:10025000F98980818064808381E090E0DF91CF9193
:100260001F910F91FF90EF900895CF93DF93EC01D2
:10027000888D8823C9F0EA89FB89808185FD05C0C6
:10028000A889B9898C9186FD0FC00FB607FCF5CF00
:10029000808185FFF2CFA889B9898C9185FFEDCF48
:1002A000CE010E94CD00E7CFDF91CF91089580E08D
:1002B00090E0892B29F00E94C30081110C9400006A
:1002C00008953FB7F89480913B0190913C01A09133
:1002D0003D01B0913E0126B5A89B05C02F3F19F006
:1002E0000196A11DB11D3FBFBA2FA92F982F8827B6
:1002F000820F911DA11DB11DBC01CD0142E0660F11
:10030000771F881F991F4A95D1F70895009769F0C4
:10031000FC0101900020E9F73197AF01481B590B10
:10032000BC0181E491E00C946A0080E090E00895C3
:100330008F929F92AF92BF920F931F93CF93DF93B1
:10034000CDB7DEB7A1970FB6F894DEBF0FBECDBF15
:1003500019A2423008F44AE08E010F5D1F4F842E2F
:10036000912CA12CB12CA50194010E947707E62FB6
:10037000B901CA0101501109EA3014F4E05D01C06D
:10038000E95CD801EC93232B242B252B61F7C801C2
:100390000E948601A1960FB6F894DEBF0FBECDBFB6
:1003A000DF91CF911F910F91BF90AF909F908F9051
:1003B0000895CF92DF92EF92FF92CF93DF936C017B
:1003C000990FEE08FF08F7FE12C08DE20E945F0051
:1003D000EC0166277727CB016C197D098E099F09EF
:1003E0004AE00E9498017C01EC0EFD1E06C04AE026
:1003F000C701B6010E9498017C0186E191E00E944C
:1004000086018E0D9F1DDF91CF91FF90EF90DF90C1
:10041000CF9008954F925F926F927F928F929F92AA
:10042000AF92BF92CF92DF92EF92FF926B017C016D
:10043000B42E9B01AC010E947207882319F089E158
:1004400091E027C026013701E89477F82FEF3FEFBE
:100450004FE75FE7C301B2010E94720781110DC02F
:100460002FEF3FEF4FE75FE7C301B2010E940405A2
:1004700018161CF48DE191E00CC02FEF3FEF4FE711
:100480005FE4C701B6010E946D07181684F481E28B
:1004900091E0FF90EF90DF90CF90BF90AF909F9052
:1004A0008F907F906F905F904F900C9486012FEF0C
:1004B0003FEF4FE75FECC701B6010E94040587FDDF
:1004C000E6CF20E030E0A901C701B6010E94040593
:1004D00087FF09C08DE20E945F004C01F7FAF0949B
:1004E000F7F8F09402C0812C912CA12C60E070E010
:1004F00080E09FE3AB1441F020E030E040E251E4C3
:100500000E94CC06A394F6CF9B01AC01C701B601B3
:100510000E9460062B013C010E943E076B017C019A
:100520000E9409059B01AC01C301B2010E945F0654
:100530002B013C014AE0C701B6010E9498017C01F1
:10054000E80CF91CBB2029F08EE20E945F00E80E47
:10055000F91EDB2CDD2021F120E030E040E251E407
:10056000C301B2010E946A052B013C010E943E07B3
:100570004B01A12CB12C4AE0C501B4010E949801A5
:10058000E80EF91EC501B4010E9409059B01AC01EA
:10059000C301B2010E945F062B013C01DA94DACF5D
:1005A000C701FF90EF90DF90CF90BF90AF909F90EA
:1005B0008F907F906F905F904F9008950E94960962
:1005C0000F931F93CF93DF93EC018881998100975C
:1005D00029F02A813B812617370788F48B016F5F4A
:1005E0007F4F0E94CC08009761F0998388831B831A
:1005F0000A832C813D81232B11F4FC01108281E0C0
:1006000001C080E0DF91CF911F910F910895EF928B
:10061000FF920F931F93CF93DF9300D0CDB7DEB738
:100620008C0169831A82FC01E480F580FFEFEF1AE8
:10063000FF0AB7010E94E002882381F0F8012081BF
:10064000318184819581BE016F5F7F4F820F931F3F
:100650000E94A409F801F582E48281E00F900F90D6
:10066000DF91CF911F910F91FF90EF900895EF923E
:10067000FF920F931F93CF93DF93EC017B018A01CD
:10068000BA010E94E0022881398181110DC0211533
:10069000310519F0C9010E943408198218821D829F
:1006A0001C821B821A8206C01D830C83B701C901FC
:1006B0000E94A409CE01DF91CF911F910F91FF906D
:1006C000EF900895FC01118210821382128215822C
:1006D00014826115710551F0FB0101900020E9F7CA
:1006E0003197AF01461B570B0C94370308951F92A7
:1006F0000F920FB60F9211242F933F934F935F9356
:100700006F937F938F939F93AF93BF93EF93FF93D9
:1007100081E491E00E94CD00FF91EF91BF91AF91F4
:100720009F918F917F916F915F914F913F912F9109
:100730000F900FBE0F901F9018951F920F920FB63B
:100740000F9211242F938F939F93EF93FF93E09138
:100750005101F09152018081E0915701F0915801CF
:1007600082FD12C0908180915A018F5F8F7320911A
:100770005B01821751F0E0915A01F0E0EF5BFE4F10
:10078000958F80935A0101C08081FF91EF919F91D5
:100790008F912F910F900FBE0F901F9018951F9261
:1007A0000F920FB60F9211242F933F938F939F9325
:1007B000AF93BF938091370190913801A091390197
:1007C000B0913A013091360123E0230F2D3720F408
:1007D0000196A11DB11D05C026E8230F0296A11D9B
:1007E000B11D209336018093370190933801A09377
:1007F0003901B0933A0180913B0190913C01A09165
:100800003D01B0913E010196A11DB11D80933B01B8
:1008100090933C01A0933D01B0933E01BF91AF91F5
:100820009F918F913F912F910F900FBE0F901F902E
:100830001895CF93DF93CDB7DEB768970FB6F894CE
:10084000DEBF0FBECDBF789484B5826084BD84B511
:10085000816084BD85B5826085BD85B5816085BDBB
:1008600080916E00816080936E0010928100809173
:1008700081008260809381008091810081608093FB
:100880008100809180008160809380008091B10020
:1008900084608093B1008091B00081608093B0004B
:1008A00080917A00846080937A0080917A008260DF
:1008B00080937A0080917A00816080937A008091A1
:1008C0007A00806880937A001092C100E091510113
:1008D000F091520182E08083E0914D01F0914E0150
:1008E0001082E0914F01F09150018FEC80831092C3
:1008F0005901E0915501F091560186E08083E09125
:100900005301F0915401808180618083E091530113
:10091000F0915401808188608083E0915301F091CF
:100920005401808180688083E0915301F0915401EB
:1009300080818F7D80834AE062EF78E080E090E004
:100940000E94980186E191E00E94860185E291E093
:100950000E94860180913F01909140010E94D9013F
:1009600068E171E0CE0143960E94620368E171E0A4
:10097000CE010D960E94620368E171E0CE010796F8
:100980000E94620368E171E0CE0101960E94620359
:1009900060E0CE0143960E94070380913F01909151
:1009A000400101969093400180933F01F1CFE1E433
:1009B000F1E01382128288EE93E0A0E0B0E084833D
:1009C0009583A683B7838AE091E09183808385EC49
:1009D00090E09587848784EC90E09787868780EC09
:1009E00090E0918B808B81EC90E0938B828B82ECFA
:1009F00090E0958B848B86EC90E0978B868B118EA4
:100A0000128E138E148E08950E94460508F481E01C
:100A10000895E89409C097FB3EF4909580957095F1
:100A200061957F4F8F4F9F4F9923A9F0F92F96E93A
:100A3000BB279395F695879577956795B795F111AF
:100A4000F8CFFAF4BB0F11F460FF1BC06F5F7F4F4C
:100A50008F4F9F4F16C0882311F096E911C077235E
:100A600021F09EE8872F762F05C0662371F096E867
:100A7000862F70E060E02AF09A95660F771F881F36
:100A8000DAF7880F9695879597F90895990F0008DA
:100A9000550FAA0BE0E8FEEF16161706E807F90750
:100AA000C0F012161306E407F50798F0621B730BEB
:100AB000840B950B39F40A2661F0232B242B252B6C
:100AC00021F408950A2609F4A140A6958FEF811D0F
:100AD000811D08950E947D050C94EE050E94E0059D
:100AE00038F00E94E70520F0952311F00C94D7050B
:100AF0000C94DD0511240C9422060E94FF0570F36E
:100B0000959FC1F3950F50E0551F629FF001729FB2
:100B1000BB27F00DB11D639FAA27F00DB11DAA1FC1
:100B2000649F6627B00DA11D661F829F2227B00D0E
:100B3000A11D621F739FB00DA11D621F839FA00D99
:100B4000611D221F749F3327A00D611D231F849FE9
:100B5000600D211D822F762F6A2F11249F57504040
:100B60009AF0F1F088234AF0EE0FFF1FBB1F661FBB
:100B7000771F881F91505040A9F79E3F510580F084
:100B80000C94D7050C9422065F3FE4F3983ED4F30F
:100B9000869577956795B795F795E7959F5FC1F728
:100BA000FE2B880F911D9695879597F9089597F9D3
:100BB0009F6780E870E060E008959FEF80EC089503
:100BC00000240A941616170618060906089500242C
:100BD0000A9412161306140605060895092E0394A6
:100BE000000C11F4882352F0BB0F40F4BF2B11F41A
:100BF00060FF04C06F5F7F4F8F4F9F4F089557FD79
:100C00009058440F551F59F05F3F71F04795880F7A
:100C100097FB991F61F09F3F79F087950895121611
:100C200013061406551FF2CF4695F1DF08C01616BD
:100C300017061806991FF1CF86957105610508946E
:100C40000895E894BB2766277727CB0197F9089585
:100C50002F923F924F925F926F927F928F929F92CC
:100C6000AF92BF92CF92DF92EF92FF920F931F93BA
:100C7000CF93DF93CDB7DEB7CA1BDB0B0FB6F8946B
:100C8000DEBF0FBECDBF09942A88398848885F84AB
:100C90006E847D848C849B84AA84B984C884DF801C
:100CA000EE80FD800C811B81AA81B981CE0FD11D00
:100CB0000FB6F894DEBF0FBECDBFED0108955058BA
:100CC000BB27AA270E9477060C94EE050E94E00538
:100CD00038F00E94E70520F039F49F3F19F426F41C
:100CE0000C94DD050EF4E095E7FB0C94D705E92F95
:100CF0000E94FF0558F3BA17620773078407950728
:100D000020F079F4A6F50C9421060EF4E0950B2E54
:100D1000BA2FA02D0B01B90190010C01CA01A0014D
:100D20001124FF27591B99F0593F50F4503E68F1A8
:100D30001A16F040A22F232F342F4427585FF3CFE9
:100D4000469537952795A795F0405395C9F77EF4BA
:100D50001F16BA0B620B730B840BBAF09150A1F003
:100D6000FF0FBB1F661F771F881FC2F70EC0BA0F89
:100D7000621F731F841F48F4879577956795B79511
:100D8000F7959E3F08F0B0CF9395880F08F099270C
:100D9000EE0F9795879508950E94E0060C94EE0556
:100DA0000E94E70558F00E94E00540F029F45F3FFB
:100DB00029F00C94D70551110C9422060C94DD05F2
:100DC0000E94FF0568F39923B1F3552391F3951B16
:100DD000550BBB27AA2762177307840738F09F5F5C
:100DE0005F4F220F331F441FAA1FA9F335D00E2EC9
:100DF0003AF0E0E832D091505040E695001CCAF736
:100E00002BD0FE2F29D0660F771F881FBB1F2617F8
:100E100037074807AB07B0E809F0BB0B802DBF01CF
:100E2000FF2793585F4F3AF09E3F510578F00C949E
:100E3000D7050C9422065F3FE4F3983ED4F38695E1
:100E400077956795B795F7959F5FC9F7880F911DBF
:100E50009695879597F90895E1E0660F771F881FAB
:100E6000BB1F621773078407BA0720F0621B730B5E
:100E7000840BBA0BEE1F88F7E09508950E940706D1
:100E800088F09F5798F0B92F9927B751B0F0E1F04B
:100E9000660F771F881F991F1AF0BA95C9F714C0FB
:100EA000B13091F00E942106B1E008950C94210622
:100EB000672F782F8827B85F39F0B93FCCF3869534
:100EC00077956795B395D9F73EF490958095709591
:100ED00061957F4F8F4F9F4F08950E94460508F4FC
:100EE0008FEF08950E944605880B990B0895A1E2A3
:100EF0001A2EAA1BBB1BFD010DC0AA1FBB1FEE1F94
:100F0000FF1FA217B307E407F50720F0A21BB30BDE
:100F1000E40BF50B661F771F881F991F1A9469F75A
:100F200060957095809590959B01AC01BD01CF01B6
:100F30000895EE0FFF1F0590F491E02D0994CF93D3
:100F4000DF938230910510F482E090E0E091E001BF
:100F5000F091E10120E030E0C0E0D0E0309711F105
:100F60004081518148175907C0F04817590761F46B
:100F700082819381209719F09B838A832BC0909361
:100F8000E1018093E00126C02115310519F04217D7
:100F9000530718F49A01BE01DF01EF010280F381CB
:100FA000E02DDCCF2115310509F1281B390B243048
:100FB000310590F412968D919C91139761157105EE
:100FC00021F0FB019383828304C09093E10180931D
:100FD000E001FD01329644C0FD01E20FF31F819351
:100FE0009193225031092D933C933AC02091DE0118
:100FF0003091DF01232B41F4209102013091030154
:101000003093DF012093DE01209100013091010136
:101010002115310541F42DB73EB74091040150919F
:101020000501241B350BE091DE01F091DF01E21791
:10103000F307A0F42E1B3F0B2817390778F0AC01FB
:101040004E5F5F4F2417350748F04E0F5F1F5093D8
:10105000DF014093DE018193919302C0E0E0F0E074
:10106000CF01DF91CF9108950F931F93CF93DF931B
:10107000009709F48CC0FC01329713821282009110
:10108000E0011091E1010115110581F42081318108
:10109000820F931F2091DE013091DF01281739075D
:1010A00079F5F093DF01E093DE0171C0D80140E0F3
:1010B00050E0AE17BF0750F412962D913C91139754
:1010C000AD012115310509F1D901F3CF9D01DA01F7
:1010D0003383228360817181860F971F8217930764
:1010E00069F4EC0128813981260F371F2E5F3F4FAD
:1010F000318320838A819B8193838283452B29F4CA
:10110000F093E101E093E00142C01396FC93EE936B
:101110001297ED01499159919E01240F351FE21755
:10112000F30771F480819181840F951F02961196C7
:101130009C938E938281938113969C938E931297A6
:10114000E0E0F0E0D80112968D919C911397009702
:1011500019F0F8018C01F6CF8D919C9198012E5FCA
:101160003F4F820F931F2091DE013091DF0128173E
:10117000390769F4309729F41092E1011092E001E7
:1011800002C0138212821093DF010093DE01DF910F
:10119000CF911F910F910895A0E0B0E0E2EDF8E04B
:1011A0000C942C06EC01009721F4CB010E949F07C0
:1011B000B8C0FC01E60FF71F9C0122503109E2176D
:1011C000F30708F4ACC0D9010D911C9111970617D3
:1011D0001707B0F00530110508F49FC0C801049747
:1011E0008617970708F499C002501109061B170BC0
:1011F000019311936D937C93CF010E9434088DC0AD
:101200005B01A01AB10A4C01800E911EA091E00171
:10121000B091E10140E050E0E12CF12C109709F48D
:101220004AC0A815B905D1F56D907C90119763015E
:1012300082E0C80ED11CCA14DB0480F1A3014A1954
:101240005B096A0182E0C80ED11C1296BC9012970D
:101250001396AC91B5E0CB16D10440F0B282A383D3
:1012600051834083D9016D937C930AC00E5F1F4F59
:10127000C301800F911FF90191838083EB2DFA2F19
:10128000E114F10431F0D7011396FC93EE93129719
:1012900044C0F093E101E093E0013FC08D919C9147
:1012A00011974817590708F4AC017D0112960D906B
:1012B000BC91A02DB3CF8091DE019091DF01881504
:1012C0009905E1F446175707C8F480910001909101
:1012D0000101009741F48DB79EB7409104015091F0
:1012E0000501841B950BE817F907C8F4F093DF019B
:1012F000E093DE01F901718360830FC0CB010E948E
:101300009F077C01009759F0A801BE010E949B092C
:10131000CE010E943408C70104C0CE0102C080E0A3
:1013200090E0CDB7DEB7EEE00C94480681E090E0A7
:10133000F8940C94AB09FB01DC0102C001900D9202
:1013400041505040D8F70895FB01DC0101900D9207
:0A1350000020E1F70895F894FFCFA4
:10135A000000E201800000000000EE006A00B70011
:10136A009500A90035010D0A006E616E00696E666E
:10137A00006F7666006E657874206E756D626572B0
:06138A00202831293A0081
:00000001FF
